{
  "_format": "hh-sol-artifact-1",
  "contractName": "TaxCongestion",
  "sourceName": "contracts/TaxCongestion.sol",
  "abi": [
    {
      "anonymous": false,
      "inputs": [
        {
          "indexed": false,
          "internalType": "string",
          "name": "licensePlate",
          "type": "string"
        },
        {
          "indexed": false,
          "internalType": "uint256",
          "name": "amount",
          "type": "uint256"
        },
        {
          "indexed": false,
          "internalType": "address",
          "name": "payer",
          "type": "address"
        }
      ],
      "name": "TaxPaid",
      "type": "event"
    },
    {
      "anonymous": false,
      "inputs": [
        {
          "indexed": false,
          "internalType": "string",
          "name": "licensePlate",
          "type": "string"
        },
        {
          "indexed": false,
          "internalType": "uint256",
          "name": "entryTimestamp",
          "type": "uint256"
        },
        {
          "indexed": false,
          "internalType": "uint256",
          "name": "taxAmount",
          "type": "uint256"
        }
      ],
      "name": "VehicleRegistered",
      "type": "event"
    },
    {
      "inputs": [
        {
          "internalType": "string",
          "name": "_licensePlate",
          "type": "string"
        }
      ],
      "name": "getVehicle",
      "outputs": [
        {
          "components": [
            {
              "internalType": "string",
              "name": "licensePlate",
              "type": "string"
            },
            {
              "internalType": "uint256",
              "name": "entryTimestamp",
              "type": "uint256"
            },
            {
              "internalType": "uint256",
              "name": "taxAmount",
              "type": "uint256"
            },
            {
              "internalType": "bool",
              "name": "isRegistered",
              "type": "bool"
            },
            {
              "internalType": "bool",
              "name": "isTaxPaid",
              "type": "bool"
            }
          ],
          "internalType": "struct TaxCongestion.Vehicle",
          "name": "",
          "type": "tuple"
        }
      ],
      "stateMutability": "view",
      "type": "function"
    },
    {
      "inputs": [],
      "name": "owner",
      "outputs": [
        {
          "internalType": "address",
          "name": "",
          "type": "address"
        }
      ],
      "stateMutability": "view",
      "type": "function"
    },
    {
      "inputs": [
        {
          "internalType": "string",
          "name": "_licensePlate",
          "type": "string"
        }
      ],
      "name": "payTax",
      "outputs": [],
      "stateMutability": "payable",
      "type": "function"
    },
    {
      "inputs": [
        {
          "internalType": "string",
          "name": "_licensePlate",
          "type": "string"
        }
      ],
      "name": "registerVehicle",
      "outputs": [],
      "stateMutability": "nonpayable",
      "type": "function"
    },
    {
      "inputs": [
        {
          "internalType": "string",
          "name": "",
          "type": "string"
        }
      ],
      "name": "vehicles",
      "outputs": [
        {
          "internalType": "string",
          "name": "licensePlate",
          "type": "string"
        },
        {
          "internalType": "uint256",
          "name": "entryTimestamp",
          "type": "uint256"
        },
        {
          "internalType": "uint256",
          "name": "taxAmount",
          "type": "uint256"
        },
        {
          "internalType": "bool",
          "name": "isRegistered",
          "type": "bool"
        },
        {
          "internalType": "bool",
          "name": "isTaxPaid",
          "type": "bool"
        }
      ],
      "stateMutability": "view",
      "type": "function"
    },
    {
      "inputs": [],
      "name": "withdraw",
      "outputs": [],
      "stateMutability": "nonpayable",
      "type": "function"
    }
  ],
  "bytecode": "0x608060405233600160006101000a81548173ffffffffffffffffffffffffffffffffffffffff021916908373ffffffffffffffffffffffffffffffffffffffff160217905550348015605057600080fd5b50611318806100606000396000f3fe6080604052600436106100545760003560e01c80626bd2af14610059578063047fd579146100825780633ccfd60b146100bf5780638da5cb5b146100d6578063976de5c514610101578063b865ebfe14610142575b600080fd5b34801561006557600080fd5b50610080600480360381019061007b91906109d6565b61015e565b005b34801561008e57600080fd5b506100a960048036038101906100a491906109d6565b6102d7565b6040516100b69190610b48565b60405180910390f35b3480156100cb57600080fd5b506100d4610459565b005b3480156100e257600080fd5b506100eb610554565b6040516100f89190610bab565b60405180910390f35b34801561010d57600080fd5b50610128600480360381019061012391906109d6565b61057a565b604051610139959493929190610c2e565b60405180910390f35b61015c600480360381019061015791906109d6565b610668565b005b60008160405161016e9190610cc4565b908152602001604051809103902060030160009054906101000a900460ff16156101cd576040517f08c379a00000000000000000000000000000000000000000000000000000000081526004016101c490610d27565b60405180910390fd5b600042905060006101dd826107cf565b90506040518060a001604052808481526020018381526020018281526020016001151581526020016000151581525060008460405161021c9190610cc4565b9081526020016040518091039020600082015181600001908161023f9190610f53565b50602082015181600101556040820151816002015560608201518160030160006101000a81548160ff02191690831515021790555060808201518160030160016101000a81548160ff0219169083151502179055509050507f45bd9b7e527c20623800e5f3fd7ef1b6b0e4ce83e25b4808cd3cc00e8fe4a6ae8383836040516102ca93929190611025565b60405180910390a1505050565b6102df610849565b6000826040516102ef9190610cc4565b908152602001604051809103902060030160009054906101000a900460ff1661034d576040517f08c379a0000000000000000000000000000000000000000000000000000000008152600401610344906110af565b60405180910390fd5b60008260405161035d9190610cc4565b90815260200160405180910390206040518060a001604052908160008201805461038690610d76565b80601f01602080910402602001604051908101604052809291908181526020018280546103b290610d76565b80156103ff5780601f106103d4576101008083540402835291602001916103ff565b820191906000526020600020905b8154815290600101906020018083116103e257829003601f168201915b5050505050815260200160018201548152602001600282015481526020016003820160009054906101000a900460ff161515151581526020016003820160019054906101000a900460ff1615151515815250509050919050565b600160009054906101000a900473ffffffffffffffffffffffffffffffffffffffff1673ffffffffffffffffffffffffffffffffffffffff163373ffffffffffffffffffffffffffffffffffffffff16146104e9576040517f08c379a00000000000000000000000000000000000000000000000000000000081526004016104e09061111b565b60405180910390fd5b600160009054906101000a900473ffffffffffffffffffffffffffffffffffffffff1673ffffffffffffffffffffffffffffffffffffffff166108fc479081150290604051600060405180830381858888f19350505050158015610551573d6000803e3d6000fd5b50565b600160009054906101000a900473ffffffffffffffffffffffffffffffffffffffff1681565b6000818051602081018201805184825260208301602085012081835280955050505050506000915090508060000180546105b390610d76565b80601f01602080910402602001604051908101604052809291908181526020018280546105df90610d76565b801561062c5780601f106106015761010080835404028352916020019161062c565b820191906000526020600020905b81548152906001019060200180831161060f57829003601f168201915b5050505050908060010154908060020154908060030160009054906101000a900460ff16908060030160019054906101000a900460ff16905085565b600080826040516106799190610cc4565b908152602001604051809103902090508060030160009054906101000a900460ff166106da576040517f08c379a00000000000000000000000000000000000000000000000000000000081526004016106d1906110af565b60405180910390fd5b8060030160019054906101000a900460ff161561072c576040517f08c379a000000000000000000000000000000000000000000000000000000000815260040161072390611187565b60405180910390fd5b8060020154341015610773576040517f08c379a000000000000000000000000000000000000000000000000000000000815260040161076a906111f3565b60405180910390fd5b60018160030160016101000a81548160ff0219169083151502179055507f64ed39e29d42cf8d56cb3ddd8d121b9d296f0a880127be4e79eb6c05fcc91f138234336040516107c393929190611213565b60405180910390a15050565b6000806018603c80856107e29190611280565b6107ec9190611280565b6107f691906112b1565b90506007811015801561080a5750600a8111155b80610823575060118110158015610822575060148111155b5b156108385766b1a2bc2ec50000915050610844565b66470de4df8200009150505b919050565b6040518060a001604052806060815260200160008152602001600081526020016000151581526020016000151581525090565b6000604051905090565b600080fd5b600080fd5b600080fd5b600080fd5b6000601f19601f8301169050919050565b7f4e487b7100000000000000000000000000000000000000000000000000000000600052604160045260246000fd5b6108e38261089a565b810181811067ffffffffffffffff82111715610902576109016108ab565b5b80604052505050565b600061091561087c565b905061092182826108da565b919050565b600067ffffffffffffffff821115610941576109406108ab565b5b61094a8261089a565b9050602081019050919050565b82818337600083830152505050565b600061097961097484610926565b61090b565b90508281526020810184848401111561099557610994610895565b5b6109a0848285610957565b509392505050565b600082601f8301126109bd576109bc610890565b5b81356109cd848260208601610966565b91505092915050565b6000602082840312156109ec576109eb610886565b5b600082013567ffffffffffffffff811115610a0a57610a0961088b565b5b610a16848285016109a8565b91505092915050565b600081519050919050565b600082825260208201905092915050565b60005b83811015610a59578082015181840152602081019050610a3e565b60008484015250505050565b6000610a7082610a1f565b610a7a8185610a2a565b9350610a8a818560208601610a3b565b610a938161089a565b840191505092915050565b6000819050919050565b610ab181610a9e565b82525050565b60008115159050919050565b610acc81610ab7565b82525050565b600060a0830160008301518482036000860152610aef8282610a65565b9150506020830151610b046020860182610aa8565b506040830151610b176040860182610aa8565b506060830151610b2a6060860182610ac3565b506080830151610b3d6080860182610ac3565b508091505092915050565b60006020820190508181036000830152610b628184610ad2565b905092915050565b600073ffffffffffffffffffffffffffffffffffffffff82169050919050565b6000610b9582610b6a565b9050919050565b610ba581610b8a565b82525050565b6000602082019050610bc06000830184610b9c565b92915050565b600082825260208201905092915050565b6000610be282610a1f565b610bec8185610bc6565b9350610bfc818560208601610a3b565b610c058161089a565b840191505092915050565b610c1981610a9e565b82525050565b610c2881610ab7565b82525050565b600060a0820190508181036000830152610c488188610bd7565b9050610c576020830187610c10565b610c646040830186610c10565b610c716060830185610c1f565b610c7e6080830184610c1f565b9695505050505050565b600081905092915050565b6000610c9e82610a1f565b610ca88185610c88565b9350610cb8818560208601610a3b565b80840191505092915050565b6000610cd08284610c93565b915081905092915050565b7f56656869636c6520616c72656164792072656769737465726564000000000000600082015250565b6000610d11601a83610bc6565b9150610d1c82610cdb565b602082019050919050565b60006020820190508181036000830152610d4081610d04565b9050919050565b7f4e487b7100000000000000000000000000000000000000000000000000000000600052602260045260246000fd5b60006002820490506001821680610d8e57607f821691505b602082108103610da157610da0610d47565b5b50919050565b60008190508160005260206000209050919050565b60006020601f8301049050919050565b600082821b905092915050565b600060088302610e097fffffffffffffffffffffffffffffffffffffffffffffffffffffffffffffffff82610dcc565b610e138683610dcc565b95508019841693508086168417925050509392505050565b6000819050919050565b6000610e50610e4b610e4684610a9e565b610e2b565b610a9e565b9050919050565b6000819050919050565b610e6a83610e35565b610e7e610e7682610e57565b848454610dd9565b825550505050565b600090565b610e93610e86565b610e9e818484610e61565b505050565b5b81811015610ec257610eb7600082610e8b565b600181019050610ea4565b5050565b601f821115610f0757610ed881610da7565b610ee184610dbc565b81016020851015610ef0578190505b610f04610efc85610dbc565b830182610ea3565b50505b505050565b600082821c905092915050565b6000610f2a60001984600802610f0c565b1980831691505092915050565b6000610f438383610f19565b9150826002028217905092915050565b610f5c82610a1f565b67ffffffffffffffff811115610f7557610f746108ab565b5b610f7f8254610d76565b610f8a828285610ec6565b600060209050601f831160018114610fbd5760008415610fab578287015190505b610fb58582610f37565b86555061101d565b601f198416610fcb86610da7565b60005b82811015610ff357848901518255600182019150602085019450602081019050610fce565b86831015611010578489015161100c601f891682610f19565b8355505b6001600288020188555050505b505050505050565b6000606082019050818103600083015261103f8186610bd7565b905061104e6020830185610c10565b61105b6040830184610c10565b949350505050565b7f56656869636c65206e6f74207265676973746572656400000000000000000000600082015250565b6000611099601683610bc6565b91506110a482611063565b602082019050919050565b600060208201905081810360008301526110c88161108c565b9050919050565b7f4f6e6c79206f776e65722063616e207769746864726177000000000000000000600082015250565b6000611105601783610bc6565b9150611110826110cf565b602082019050919050565b60006020820190508181036000830152611134816110f8565b9050919050565b7f54617820616c7265616479207061696400000000000000000000000000000000600082015250565b6000611171601083610bc6565b915061117c8261113b565b602082019050919050565b600060208201905081810360008301526111a081611164565b9050919050565b7f496e73756666696369656e74207061796d656e74000000000000000000000000600082015250565b60006111dd601483610bc6565b91506111e8826111a7565b602082019050919050565b6000602082019050818103600083015261120c816111d0565b9050919050565b6000606082019050818103600083015261122d8186610bd7565b905061123c6020830185610c10565b6112496040830184610b9c565b949350505050565b7f4e487b7100000000000000000000000000000000000000000000000000000000600052601260045260246000fd5b600061128b82610a9e565b915061129683610a9e565b9250826112a6576112a5611251565b5b828204905092915050565b60006112bc82610a9e565b91506112c783610a9e565b9250826112d7576112d6611251565b5b82820690509291505056fea2646970667358221220950bdbc866f510b687bc9bea5d33ac110b538138cd959787fe6a1f9e7ac3987664736f6c634300081c0033",
  "linkReferences": {},
  "deployedLinkReferences": {}
}